:100496002020C4CFC4C1D6B8CEC6BFAAB9D82020A2
:1004A6000020202020CED5CAD6B3C9B9A620202048
:1004B6002000B0B4C8CED2E2BCFCBDF8C8EBCFB5C4
:1004C600CDB30020202020CED5CAD6CAA7B0DC20C6
:1004D60020202000C7EBBCECB2E9CFDFC2B7C4A333
:1004E600BFE90020202020BFAAB9D8BBFAC6F72052
:1004F60020200020202020C2BCC8EBD6B8CEC620C3
:100506002020200020202020C7E5BFD5D6B8CEC6A3
:1005160020202020002020202020202020202020F5
:1005260020202020200020202020BFAAB9D8BBFAF6
:10053600C6F72020202000BFAAB9D8D2D1BEADBFB1
:10054600AAC6F42020202000CAE4C8EBD6B8CEC63E
:10055600B9D8B1D52020202000B5C8B4FDCAE4C85A
:10056600EB2E2E2E2E2E2E2E2E00BFAAB9D8D2D18D
:10057600BEADB9D8B1D52020202000CAE4C8EBD63C
:10058600B8CEC6BFAAC6F42020202000B8C3D6B86D
:10059600CEC6B2BBB4E6D4DA2020202000B2D9D72A
:1005A600F7CAA7B0DC202020202020202000B0B4ED
:1005B600C8CED2E2BCFCB7B5BBD82020202000B202
:1005C600D9D7F7B3C9B9A6202020202020202000A3
:1005D600D3C3BBA7BAC53A200020202000B6C1C8A5
:1005E600A1C4A3B0E6CAFDB4EDCEF3202000C7EB4C
:1005F600CDCBBBD8D6D8CAD420202020202000209E
:10060600202020D7EEB8DFC8A8CFDE20202020008B
:1006160020202020D3C3BBA7C8A8CFDE20202020BF
:1006260000C7EBB9DCC0EDD4B1CAE4C8EBD6B8CE8E
:10063600C600D1E9D6A4B3C9B9A62020202020201F
:10064600202000B9DCC0EDD4B13A2000B8C3D6B83A
:10065600CEC6BBB9C3BBC2BCC8EB202000B0B4C871
:10066600CED2E2BCFCCDCBBBD8D6D8CAD400C4E32C
:10067600B5C4C8A8CFDEB2BBD7E32020202000D661
:10068600B8CEC6CAFD3A20002020202000B5DAD216
:10069600BBB4CEC2BCC8EB20202020202000B5C8A9
:1006A600B4FDD6D02E2E2E2E2E2E2E2E2E2E00B56C
:1006B600DAD2BBB4CEBBF1C8A1B3C9B9A62020001B
:1006C600D5FDD4DAB1A3B4E6B5BDBCC4B4E6C6F76D
:1006D60000B8C3D6B8CEC6D2D1BEADB4E6D4DA2001
:1006E6002000C8CED2E2BCFCCDCBBBD8D6D8CAD46B
:1006F600202000B1A3B4E6B3C9B9A620202020204B
:1007060020202000BFAACABCB5DAB6FEB4CEC2BC51
:10071600C8EB202000B5DAB6FEB4CEBBF1C8A1B353
:10072600C9B9A6202000BFAACABCC9FAB3C9C4A3C6
:10073600B0E62020202000C9FAB3C9C4A3B0E6B3AE
:10074600C9B9A62020202000D5D4DAB1A3B4E6C4C6
:10075600A3B0E620202020002020B1A3B4E6D6B81E
:10076600CEC6B3C9B9A6202000D6B8CEC6BAC53AF9
:1007760000B1A3B4E6D6B8CEC6CAA7B0DC20202006
:100786002000C9FAB3C9D6B8CEC6C4A3B0E6CAA774
:10079600B0DC00B1A3B4E6BCC4B4E6C6F7B6FECA84
:1007A600A7B0DC00BBF1C8A1D6B8CEC6B6FECAA7B4
:1007B600B0DC202000B1A3B4E6BCC4B4E6C6F7D2D0
:1007C600BBCAA7B0DC00BBF1C8A1D6B8CEC6D2BBA7
:1007D600CAA7B0DC202000D7A2D2E2B8C3B2D9D7CC
:1007E600F7BBE1C9BEB3FD00CBF9D3D0D6B8CEC6B0
:1007F600B0FCC0A8B9DCC0ED00D4B1D6B8CEC621D5
:1008060021202020202020202000C8B7B6A8BCCC5C
:10081600D0F8CDCBB3F6C8A1CFFB00C9BEB3FDCB94
:10082600F9D3D0D6B8CEC62020202000C7E5BFD544
:10083600D6B8CEC6BFE2B3C9B9A6202000B0B4C8A8
:10084600CED2E2BCFCC5CCB7B5BBD8202000C7E5EC
:10085600BFD5D6B8CEC6BFE2CAA7B0DC202000C43A
:10086600E3B5C4D6B8CEC6B2BBB4E6D4DA2020000F
:10087600C4E3B5C4D6B8CEC6C8A8CFDEB2BBB9BB32
:1008860000BDF6B9DCC0EDD4B1BFC9D2D4B2D9D758
:10089600F70000000000000000000001010101FF58
:1008A60011360101020401FF12B70201030502FF1E
:1008B60011DB0302030603FF118E0401010101FF90
:1008C6000A650502020202FF000E0603030303FF88
:1008D6000C9A00000000000000000000000000006C
:1008E6000000000000000000000000000000000002
:0A08F60000000000000000000000F8
:03139700010A0048
:10113600C2A97BFF7A047996E4FDFF121270E4F5EA
:1011460037121498501C7BFF7A0479A7E4FD7F01BF
:101156001212707BFF7A0479B8E4FD7F03121270D5
:1011660080237BFF7A0479C9E4FD7F011212707B2C
:10117600FF7A0479DAE4FD7F031212700537E5374A
:07118600C3940640BCD2A98E
:01118D00223F
:1012B700C2A97BFF7A0479E9E4FDFF1212707BFF74
:1012C7007A0479F9E4FD7F011212707BFF7A0579C0
:1012D7000AE4FD7F021212707BFF7A05791BE4FD99
:1012E7007F031212707D01E4FF12107CE4FD7F0181
:0612F70012107CD2A922B6
:1011DB00C2A97BFF7A05792CE4FDFF1212707BFF0D
:1011EB007A0479F9E4FD7F011212707BFF7A05799D
:1011FB000AE4FD7F021212707BFF7A05791BE4FD76
:10120B007F03121270E4FDFF12107CE4FD7F0212CB
:0C121B00107C7D017F0112107CD2A92202
:10118E00C2A97BFF7A05792CE4FDFF1212707BFF5A
:10119E007A0479F9E4FD7F011212707BFF7A0579EA
:1011AE000AE4FD7F021212707BFF7A05791BE4FDC3
:1011BE007F03121270E4FD7F0112107CE4FD7F03A9
:0D11CE0012107C7D017F0212107CD2A9223C
:100A6500E4F53778387C00FD7BFF7A087998FE7FBE
:100A750004120C55C2A912153E1213EC7BFF2094EB
:100A8500127A05793DE4FDFF1212707BFF7A057934
:100A95004E80107A057970E4FDFF1212707BFF7AA3
:100AA500057981E4FD7F011212707BFF7A05791BC0
:100AB500E4FD7F021212707BFF7A05795FE4FD7F0A
:100AC500031212701212FD8F37753820E53775F055
:100AD50064842430F539E53775F06484E5F075F004
:100AE5000A842430F53AE53775F00A84E5F02430B8
:100AF500F53BE537F47BFF70327A057992FDFF12FD
:100B050012707BFF7A0579A3E4FD7F011212707BD9
:100B1500FF7A05791BE4FD7F021212707BFF7A05CF
:100B250079B4E4FD7F03121270804D7A0579C5E42E
:100B3500FDFF1212707BFF7A05791BE4FD7F011220
:100B450012707BFF7A0579D6E4FD7F021212707B65
:100B5500007A0079387D047F021212707BFF7A05D6
:100B650079DF7D067F021212707BFF7A0579B4E486
:0F0B7500FD7F03121270B2941214B6D295D2A95A
:010B8400224E
:10000E0078377C007D007BFF7A08799C7E007F0428
:10001E00120C55E4F53BF53CC207C208C2A91215F5
:10002E003E1213ECC2091214368F3BE53BF47014EA
:10003E007BFF7A0579E3FDFF1212707BFF7A05795B
:10004E001B0203E9E53B6003B4010F7BFF7A0679DF
:10005E0005E4FDFF1212700201917BFF7A067916FC
:10006E00E4FDFF1212707BFF7A067927E4FD7F0113
:10007E001212707BFF7A05795FE4FD7F0212127017
:10008E001212FD8F3CE53C64016006E53C64027093
:10009E0065753720E53C75F064842430F538E53C11
:1000AE0075F06484E5F075F00A842430F539E53C8A
:1000BE0075F00A84E5F02430F53A7BFF7A0679383C
:1000CE00E4FD7F011212707BFF7A067949E4FD7F11
:1000DE00021212707B007A0079377D047F021212B1
:1000EE00707BFF7A0579DF7D067F02121270121483
:1000FE00B6D295020191E53CF470227BFF7A067927
:10010E0016FDFF1212707BFF7A067952E4FD7F0115
:10011E001212707BFF7A05791BE4FD80587537202B
:10012E00E53C75F064842430F538E53C75F0648464
:10013E00E5F075F00A842430F539E53C75F00A8453
:10014E00E5F02430F53A7BFF7A067974E4FD7F0101
:10015E001212707BFF7A0579D6E4FD7F02121270BF
:10016E007B007A0079377D047F021212707BFF7A52
:10017E000579DF7D067F021212707BFF7A067963A6
:10018E0002025C753720E53B75F064842430F53847
:10019E00E53B75F06484E5F075F00A842430F5399A
:1001AE00E53B75F00A84E5F02430F53A7BFF7A06DC
:1001BE007985E4FD7F011212707B007A0079377D1C
:1001CE00047F011212707BFF7A06798E7D067F0105
:1001DE001212707BFF7A067993E4FD7F0212127081
:1001EE007BFF7A0679A4E4FD7F0312127012147855
:1001FE00400302046C7BFF7A0679B5E4FD7F0112A1
:10020E0012707BFF7A05791BE4FD7F021212707B60
:10021E00FF7A0679C6E4FD7F031212707F01121079
:10022E00D9400302044A1214D2BFFF02802F7BFF73
:10023E007A0679D7E4FD7F011212707BFF7A057979
:10024E001BE4FD7F021212707BFF7A0679E8E4FD53
:10025E007F031212701214B6D2950204937BFF7AAA
:10026E000679F9E4FD7F011212707BFF7A05791B86
:10027E00E4FD7F021212707BFF7A05791BE4FD7F8D
:10028E00031212701214B6D2957FE87E031214BCBC
:10029E007BFF7A07790AE4FD7F031212701214783D
:1002AE0040030204287BFF7A07791BE4FD7F0112CD
:1002BE0012707BFF7A05791BE4FD7F021212707BB0
:1002CE00FF7A0679C6E4FD7F031212707F021210C8
:1002DE00D940030204067BFF7A0679F9E4FD7F011B
:1002EE001212707BFF7A05791BE4FD7F02121270E9
:1002FE007BFF7A05791BE4FD7F031212701214B690
:10030E00D2957FE87E031214BC7BFF7A07792CE42A
:10031E00FD7F0312127012152440030203E37BFFCC
:10032E007A07793DE4FD7F011212707BFF7A057921
:10033E001BE4FD7F021212707BFF7A07794EE4FDFB
:10034E007F03121270053B753720E53B75F0648410
:10035E002430F538E53B75F06484E5F075F00A84D9
:10036E002430F539E53B75F00A84E5F02430F53A92
:10037E00AF3B1213C37BFF503B7A07795EE4FD7FE0
:10038E00011212707BFF7A07796FE4FD7F02121261
:10039E00707B007A0079377D047F021212707BFF2A
:1003AE007A06798E7D067F021212707BFF7A0579AE
:1003BE00B402048C7A077977E4FD7F011212707B08
:1003CE00FF7A05791BE4FD7F021212707BFF7A051E
:1003DE0079F402048C7BFF7A077988E4FD7F0112A1
:1003EE0012707BFF7A05791BE4FD7F021212707B7F
:1003FE00FF7A0579F402048C7BFF7A077999E4FD84
:10040E007F011212707BFF7A05791BE4FD7F0212C9
:10041E0012707BFF7A0579F480647BFF7A0779AAE4
:10042E00E4FD7F011212707BFF7A05791BE4FD7FDC
:10043E00021212707BFF7A0579F480427BFF7A07F5
:10044E0079BBE4FD7F011212707BFF7A05791BE404
:10045E00FD7F021212707BFF7A0579F480207BFFFC
:10046E007A0779CCE4FD7F011212707BFF7A057951
:10047E001BE4FD7F021212707BFF7A0579F4E4FD16
:07048E007F03121270D2A9D6
:010495002244
:100C9A00E4F537C2A912153E1213EC7BFF7A0779E5
:100CAA00DDE4FDFF1212707BFF7A0779EEE4FD7F27
:100CBA00011212707BFF7A0779FFE4FD7F0212129C
:100CCA00707BFF7A087910E4FD7F03121270121507
:100CDA009AE50924F07003020DA624F070F07BFF58
:100CEA007A087921E4FDFF1212707BFF7A067927D0
:100CFA00E4FD7F011212707BFF7A05791BE4FD7F08
:100D0A00021212707BFF7A05795FE4FD7F031212EB
:100D1A00701212FD8F37C2957F2C7E011214BCD23D
:100D2A0095E53764016006E53764027039121509E2
:100D3A007BFF50067A08793280047A087954E4FDF8
:100D4A00FF1212707BFF7A05791BE4FD7F011212F4
:100D5A00707BFF7A05791BE4FD7F021212707BFF1C
:100D6A007A087943802F7537FF7BFF7A087965E423
:100D7A00FDFF1212707BFF7A05791BE4FD7F0112D9
:100D8A0012707BFF7A05791BE4FD7F021212707BD9
:0E0D9A00FF7A0579B4E4FD7F03121270D2A92E
:010DA8002228
:0614B600C2957FF47E01E7
:1014BC00EF1FAA0670011E4A600BE4FDEDC3947881
:0514CC0050EE0D80F759
:0114D10022F8
:0B159A00E5B0F4FF65085FF5098F085D
:0115A5002223
:03000B00020E845E
:100E8400C0E0C0F0C083C082C0D075D000C000C034
:100E940001C002C003C004C005C006C00712159AF1
:100EA400E50924F0603924F0601724E0602224C0AE
:100EB400706CE50A75F008A424A1F582E434088076
:100EC4002BE50A75F008A424A3F582E43408801CF9
:100ED400E50A75F008A424A2F582E43408800DE53F
:100EE4000A75F008A424A4F582E43408F583E49395
:100EF400F50A75F008A424A5F582E43408F583E422
:100F040093FB740193FA740293F98B0B8A0CF50D1D
:100F1400120C94C2957F147E001214BCD295D00793
:100F2400D006D005D004D003D002D001D000D0D058
:090F3400D082D083D0F0D0E0326D
:101227007F0A7E001214BCC296758901758CA6755B
:101237008A68D2AFD2A9D28C12156A12153E121340
:10124700EC121554E50A75F008A424A5F582E434D8
:1012570008F583E493FB740193FA740293F98B0BFB
:091267008A0CF50D120C9480FEB6
:1014580080818283848586879091929394959697CC
:1014680088898A8B8C8D8E8F98999A9B9C9D9E9F3C
:0F141400121423EC54F0FF121423ECC454F0FF15
:10142300E4FEC292EF25E0FF9291D292C2920EBEE9
:0214330008F0BF
:011435002294
:10133600E4FFFEFDEF25E0FFC292D292C292309109
:10134600010F0DBD08EEE4FDEE25E0FEC292D2923D
:10135600C2923091010E0DBD08EEEE540FFEEF5411
:03136600F02EFF67
:011369002261
:0D158D007FFC121423121336EF20E7F42226
:10136A0075F008E53DA4253EF582E435F0F583E500
:0E137A00822458F582E5833414F583E493FF52
:0F138800AC07D29012158D7FF8121414C2902268
:0F157E00AC07D29012158D7FFA121414C290226E
:10156A007F301213887F0C1213887F011213887F31
:04157A0006021388CA
:10153E007F301213887F80121388E4FB7F201215F0
:05154E007E0BBB40F71D
:011553002275
:1013EC007F341213887F36121388E4FBEB4480FFA2
:1013FC001213887F80121388E4FAE4FF12157E0A18
:07140C00BA20F70BBB20E53D
:0114130022B6
:101270008F3D8D3E7F3212138812136A120C7B60F1
:1012800035E53EB40805E4F53E053DE53DB404030F
:10129000E4F53D12136A120C7BFF12157E740129CE
:1012A000F9E43AFA120C7BFF12157E740129F9E475
:0712B0003AFA053E80C62258
:020F3D00AB0700
:100F3F007F36121388EB14601214601B1460242484
:100F4F0003702A7510FFE4F5118006E4F510751192
:100F5F00FFF512F5138016E4F510F5117512FFF574
:100F6F0013800AE4F510F511F5127513FFE4FBEB8E
:100F7F00C39410500A750F80EB2480F50EA91074DE
:100F8F0010D39B5010EBC39420500A750F80EB24A5
:100F9F0080F50EA9117420D39B5010EBC3943050E1
:100FAF000A750F88EB2460F50EA9127430D39B508D
:100FBF0010EBC39440500A750F88EB2460F50EA90F
:100FCF0013AF0E121388AF0F121388E4FAAF01128A
:100FDF00157E0ABA10F70BEB644070937F32021341
:010FEF008879
:04107C00AB05AA070F
:101080007F36121388BB01057538FF8003E4F538FD
:10109000EA1460111460151460192403701A75376E
:1010A00080798080137537807990800C75378879C6
:1010B0008080057537887990E4FBE92BFF1213884F
:1010C000AF37121388E4FAAF3812157E0ABA10F758
:0910D0000BBB10E67F320213880D
:100DA9001001FFFFFFFF0100071300000000001BF7
:100DB9001001FFFFFFFF0100071200000000001AE9
:100DC9000C01FFFFFFFF0100030100050D01FFFFFB
:100DD900FFFF01000402010008000D01FFFFFFFFF2
:100DE900010004020200091101FFFFFFFF010008D1
:100DF9000401000000650073000C01FFFFFFFF0103
:100E0900000305000900000F01FFFFFFFF010006B5
:100E190006020000000F000D01FFFFFFFF010004A3
:100E29001900001E002D01FFFFFFFF01002418001B
:100E390000000000000000000000000000000000A9
:100E49000000000000000000000000000000000099
:100E5900003D001001FFFFFFFF0100070C0000002B
:100E69000100150C01FFFFFFFF0100030D00110C2C
:0B0E790001FFFFFFFF0100031D00212F
:10139A00014E001F4F000000000000000000000086
:1013AA000000000000000000000000000000000033
:0813BA0000000000024C0000DD
:1014EE00E4FDFCEFFBC3ED9BEC9400500DE4FE0E0F
:0A14FE00BEA0FC0DBD00010C80E94A
:0115080022C0
:10155400759850E4F587758921758DFD758BFDD2DD
:061564008EC299C298221C
:0A15A600C2998F993099FDC2992275
:040900007BFF7DEF0D
:080904008B418A4289438D44B6
:10090C00E4F545F546F547F548FEF549F54AF54B4E
:10091C00C20BC20CC20D7FEF1215A67F011215A6D9
:10092C00AB41AA42A943120C7BFF74012543F5434A
:10093C00E43542F54274012543F543E43542F54272
:10094C00EF14F547E54764016019AB410543E543F6
:10095C00AA427002054214F9120C7BFF1215A6155F
:10096C004780E1D20BE4F54E75471F744E2547F8CE
:10097C00E4F6D547F6200B03020A62C20BC20CC286
:10098C000DE4F547F546F5450546E546B4FF050586
:10099C0045E4F546209803020A4F859948C298E52C
:1009AC0048B4EF0E200C0BE4F54785484F754A010F
:1009BC0080D6E54A64017023E5486401600DE4F5D6
:1009CC004AC20BC20CC20DF54780BD754A020547E1
:1009DC00744F2547F8A648D20C80ADE54A640270E6
:1009EC0062300C5F0547744F2547F8A648E547C3AE
:1009FC009406400A744F2547F8E6254BF54BE5471E
:100A0C00B40805855749D20D300D38E5492408FF47
:100A1C00E433FEE5476F7001EE7028744E2547F8FD
:100A2C00E6FFC3E54B9FFF744F2547F8E6FEC3EF87
:100A3C009EF54BEE654B6004C20B8002D20BE4F5C5
:100A4C004A8010E545C395445009E547941E500370
:080A5C0002099485474EA20B2C
:010A6400226F
:10149800E4FC7A0D79A9120900500BE54EB40B064D
:0D14A800E5587002D3220CECC3940240E51D
:0114B5002214
:101509007FC81214EE7A0E796C120900500BE54E61
:0B151900B40B06E5587002D322C32279
:0210D9008F3F47
:1010DB00E4FCF5407F141214EEE4FCE4F540E53F2C
:1010EB00B401187BFF7A0D79D57DEF120904502AD4
:1010FB00E54E640B7024E558702022E53FB40218CE
:10110B007BFF7A0D79E37DEF120904500DE54EB4A8
:10111B000B08E5587004D322C3220540E540C39465
:0A112B00FF40BB0CEC642F70B2C350
:011135002297
:1013C300E4FEEE900E1093FD744F2EF8A6050EBEAC
:1013D30010F08F5BEF255DF55D7B007A00794F7D23
:0813E300EF120904500122C3BE
:0113EB0022DF
:101436007BFF7A0E79787DEF1209045012E54EB4DF
:101446000D0DE5587009200903AF5A22AF59227FC6
:02145600FF2273
:101524007BFF7A0E79027DEF120904500BE54EB46D
:0A1534000B06E5587002D322C32213
:10147800E4FC7BFF7A0D79C97DEF120904500BE576
:0F1488004EB40B06E5587002D3220CBC28E4C307
:011497002232
:1012FD00E4F53DF53EC209C20A12147892097F0148
:10130D001210D9920A300915300A121214D28F3DDB
:10131D00EFB4FF03D38001C34003AF3D22053EE58B
:08132D003EC3940240D37FFF90
:011335002295
:1014D2007BFF7A0D79F07DEF120904500CE54EB4D2
:0C14E2000F07E5587003AF5A227FFF226D
:03000000020FF0FC
:0C0FF000787FE4F6D8FD75816D021037A3
:100B8500E709F608DFFA8046E709F208DFFA803E52
:100B950088828C83E709F0A3DFFA8032E309F6083F
:100BA500DFFA8078E309F208DFFA807088828C83A7
:100BB500E309F0A3DFFA806489828A83E0A3F6085B
:100BC500DFFA805889828A83E0A3F208DFFA804C35
:100BD50080D280FA80C680D4806980F2803380100C
:100BE50080A680EA809A80A880DA80E280CA803375
:100BF50089828A83ECFAE493A3C8C582C8CCC583ED
:100C0500CCF0A3C8C582C8CCC583CCDFE9DEE780BC
:100C15000D89828A83E493A3F608DFF9ECFAA9F03B
:100C2500EDFB2289828A83ECFAE0A3C8C582C8CC91
:100C3500C583CCF0A3C8C582C8CCC583CCDFEADEAA
:100C4500E880DB89828A83E493A3F208DFF980CC0C
:100C550088F0EF60010E4E60C388F0ED2402B40405
:100C65000050B9F582EB2402B4040050AF232345AC
:060C75008223900BD573F1
:100C7B00BB010689828A83E0225002E722BBFE0277
:090C8B00E32289828A83E49322AA
:060C94008A838982E473EB
:100FFC00021227E493A3F8E493A34003F68001F2D2
:10100C0008DFF48029E493A3F85407240CC8C333F5
:10101C00C4540F4420C8834004F456800146F6DFC4
:10102C00E4800B0102040810204080901397E47EAA
:10103C00019360BCA3FF543F30E509541FFEE493B9
:10104C00A360010ECF54C025E060A840B8E493A380
:10105C00FAE493A3F8E493A3C8C582C8CAC583CAAB
:10106C00F0A3C8C582C8CAC583CADFE9DEE780BE63
:0113C200002A
:00000001FF
